:1000000000800020C9770100AD770100657701000D
:10001000657701006577010065770100657701006C
:10002000657701006577010065770100AD77010014
:10003000AD77010065770100215701009959010052
:10004000AD770100AD770100AD770100AD7701001C
:10005000AD770100AD770100AD770100AD7701000C
:10006000AD770100AD770100AD770100AD770100FC
:10007000AD770100AD770100AD770100AD770100EC
:10008000AD770100AD770100AD770100AD770100DC
:10009000AD770100AD770100AD770100AD770100CC
:1000A000413201006D330100AD770100AD770100F1
:1000B000AD770100AD770100AD770100AD770100AC
:1000C000AD770100AD770100AD770100AD7701009C
:1000D000AD770100AD770100AD770100AD7701008C
:1000E000AD770100AD770100AD770100AD7701007C
:1000F000AD77010029A20100AD77010085A30100C1
:10010000AD770100ED8A0100AD770100AD77010008
:10011000AD770100AD770100AD770100AD7701004B
:10012000AD770100AD770100AD770100AD7701003B
:10013000AD770100AD770100AD770100AD7701002B
:10014000AD770100AD770100AD770100AD7701001B
:10015000A5A10100BDA10100D5A10100EDA10100F3
:10016000AD770100CD8D0100AD770100AD770100C5
:10017000AD770100AD770100AD770100AD770100EB
:10018000AD770100AD770100AD770100AD770100DB
:10019000AD770100AD770100AD770100AD770100CB
:1001A000AD770100AD770100AD770100AD770100BB
:1001B000AD770100AD770100AD770100FFFFFFFFD4
:1001C000FFFFFFFFFFFFFFFFFFFFFFFFFFFFFFFF3F
:1001D000FFFFFFFFFFFFFFFFFFFFFFFFFFFFFFFF2F
:1001E000FFFFFFFFFFFFFFFFFFFFFFFFFFFFFFFF1F
:1001F000FFFFFFFFFFFFFFFFFFFFFFFFFFFFFFFF0F
:10040000FFFFFFFFFFFFFFFFFFFFFFFFDEF9FFFF23
:1004100010B5054C237833B9044B13B10448AFF33E
:1004200000800123237010BD3095FF1F00000000E5
:10043000F06C0200084B10B51BB108490848AFF337
:1004400000800848036803B910BD074B002BFBD0A0
:10045000BDE81040184700BF000000003495FF1FA2
:10046000F06C02003095FF1F000000000020704774
:10047000704700BF00B5036883B001225B6A0DF1CD
:100480000701984701280CBF9DF807004FF0FF3087
:1004900003B05DF804FB00BF4FF0FF30704700BFB2
:1004A000036918680368DB68184700BF027C02F024
:1004B000080202F0FF0332B1C36A406A181A48BF4B
:1004C0006FF0004070471846704700BF0A2970B5AA
:1004D0000C46054606D06868036821461B68BDE8DF
:1004E00070401847406803680D211B689847F2E781
:1004F000002070470020704701207047002070479F
:1005000010B54AF2E404C1F6FF7404F1200015F0BE
:100510007BFF04F1100015F077FF2046BDE8104086
:1005200015F072BF10300DF087BD00BF10300DF018
:10053000C9BD00BF00B583B002AB012203F8011DA5
:10054000103019460DF0BEFD03B05DF804FB00BF8E
:1005500000B583B001220DF1070110300DF0B2FBA0
:1005600001280CBF9DF807004FF0FF3003B05DF885
:1005700004FB00BF10300DF06BBC00BFF0B585B0C0
:100580000D46064600216846174643F6546415F0AA
:100590005BFD6846102115F03FFFC0F20204297987
:1005A000684616F0CBF82146684616F03DF86979A2
:1005B000684616F0C3F82146684616F035F8A97962
:1005C000684616F0BBF82146684616F02DF8E97922
:1005D000684616F0B3F8336800991B6A3A4630460D
:1005E00098470446684615F00FFF204605B0F0BD59
:1005F00038B548F6BC24C1F6FF740146204615F014
:1006000097FA0546204615F017FB284438BD00BF71
:100610002DE9F0430446A1B00D4618A8214615F077
:100620003FFD0423002218A91CA816F037FA1CA9C4
:1006300018A815F037FF0146684615F031FD1CA8D3
:1006400015F0E2FE18A815F0DFFE214618A815F0F7
:1006500027FD0623042218A91CA816F01FFA1CA9BE
:1006600018A815F01FFF014604A815F019FD1CA8D5
:1006700015F0CAFE18A815F0C7FE214618A815F0F7
:100680000FFD0823062218A91CA816F007FA1CA9BA
:1006900018A815F007FF014608A815F001FD1CA8D1
:1006A00015F0B2FE18A815F0AFFE214618A815F0F7
:1006B000F7FC0A23082218A91CA816F0EFF91CA9B8
:1006C00018A815F0EFFE01460CA815F0E9FC1CA8CF
:1006D00015F09AFE18A815F097FE214618A815F0F7
:1006E000DFFC0C230A2218A91CA816F0D7F91CA9B4
:1006F00018A815F0D7FE014610A815F0D1FC1CA8CB
:1007000015F082FE18A815F07FFE214618A815F0F6
:10071000C7FC0E230C2218A91CA816F0BFF91CA9AF
:1007200018A815F0BFFE014614A815F0B9FC1CA8C6
:1007300015F06AFE18A815F067FE69461CA815F0AA
:10074000AFFC04A91CA816F047F808A916F044F855
:1007500001464AF2C460C1F6FF7015F073FE1CA892
:1007600015F052FE684616F0EFFA044604A816F09B
:10077000EBFA804608A816F0E7FA07460CA816F030
:10078000E3FA814610A816F0DFFA064614A816F020
:10079000DBFA4D448DF870004E341CA88DF876407D
:1007A0008DF872508DF875808DF874708DF87160C9
:1007B0000CF0FCF8044614A815F026FE10A815F05D
:1007C00023FE0CA815F020FE08A815F01DFE04A8B5
:1007D00015F01AFE684615F017FE204621B0BDE858
:1007E000F08300BF2DE9F04F4AF2A879C1F6FF79F6
:1007F0008DB004468A46104640219846164615F0AC
:100800000BFED9F800300393039B0193002017F0EF
:1008100033FE05E0206803685B69984700281BDC0D
:10082000206803681B6998470028F3DCD9F800307A
:100830000293029B019A9B1A5345E7D3304616F068
:1008400055FA44F20C413046C0F2020115F04CFE5C
:1008500000200DB0BDE8F08FC1B2304615F028FF82
:1008600008ADB8F1000F0ED04146284615F0ECFB5C
:100870002946304616F04AF80746284615F0C4FDCA
:10088000002F40F0A28043F27C31C0F202012846E2
:1008900015F0DAFB2946304616F038F8002840F00B
:1008A0008D80284615F0B0FD43F29031C0F2020170
:1008B000284615F0C9FB2946304616F027F80746AA
:1008C000284615F0A1FD9FB104A878232C222168A9
:1008D00015F03CFA04A816F037FA012807464FD065
:1008E00004A9304615F060FE04A815F08DFD97E7C9
:1008F00043F28431C0F20201284615F0A5FB2946D7
:10090000304616F003F88346284615F07DFDBBF10E
:10091000000F85D045F24861C0F20201284615F06B
:1009200093FBB2682946083A304616F08DF88346A4
:100930000BF1020B284615F067FD5A462C21304674
:1009400016F022F85A4603463146284616F0A6F815
:10095000284616F0F9F98346284615F055FDBBF1F7
:10096000040F05D804EB8B0BDBF8043003B11F77C1
:1009700044F20C41C0F20201304615F0B5FD4FE7DC
:1009800078230A222168284615F0E0F9284616F057
:10099000DBF98346284615F037FDBBF1040F05D877
:1009A00004EB8B0BDBF8043003B15F7744F20C41AE
:1009B000C0F20201304615F097FD95E7284615F084
:1009C00023FD02200DB0BDE8F08F01200DB0BDE881
:1009D000F08F00BF70B584B0164604460D466846D9
:1009E000002115F031FB33466A4629462046FFF7C1
:1009F000F9FE0446684615F007FD204604B070BDB8
:100A00002DE9F04F4AF2A87A91B0C1F6FF7A044678
:100A10000F4604A800219946904615F015FB04A83E
:100A2000402115F0F9FCDAF800300393039B8DE8C0
:100A30000804DDF868A0002017F01EFD05E020681E
:100A400003685B699847002820DC206803681B69FD
:100A500098470028F3DC019B009A1B680293029BD5
:100A60009B1AB3F57A7FE6D304A816F03FF944F257
:100A70000C41C0F2020104A815F036FD002404A8C0
:100A800015F0C2FC204611B0BDE8F08FC1B204A839
:100A900015F00EFE0CAD77B13946284615F0D4FAA4
:100AA000294604A815F032FF0646284615F0ACFC8E
:100AB000002E40F0C180B8F1000F0ED0414628460C
:100AC00015F0C2FA294604A815F020FF064628466C
:100AD00015F09AFC002E40F0B380B9F1000F0ED053
:100AE0004946284615F0B0FA294604A815F00EFF2D
:100AF0000646284615F088FC002E40F09F80BAF18B
:100B0000000F0ED05146284615F09EFA294604A83B
:100B100015F0FCFE0646284615F076FC002E40F047
:100B2000918043F29031C0F20201284615F08CFA10
:100B3000294604A815F0EAFE0646284615F064FC8E
:100B40009EB108A878232C22216815F0FFF808A888
:100B500016F0FAF80128064650D008A904A815F0A6
:100B600023FD08A815F050FC6FE743F28431C0F272
:100B70000201284615F068FA294604A815F0C6FEB9
:100B80008346284615F040FCBBF1000F3FF45DAFF3
:100B900045F24861C0F20201284615F055FA069A5E
:100BA0002946083A04A815F04FFF83460BF1020BC3
:100BB000284615F029FC5A462C2104A815F0E4FE1D
:100BC0005A46034604A9284615F068FF284616F041
:100BD000BBF88346284615F017FCBBF1040F05D877
:100BE00004EB8B0BDBF8043003B11E7744F20C41AD
:100BF000C0F2020104A815F077FC26E778230A2248
:100C00002168284615F0A2F8284616F09DF883467C
:100C1000284615F0F9FBBBF1040F05D804EB8B0B4C
:100C2000DBF8043003B15E7744F20C41C0F20201FC
:100C300004A815F059FC94E7012420E703241EE7DB
:100C400002241CE704241AE710B504461EF0F8FC41
:100C500001462046BDE8104019F052B82DE9F04198
:100C600048F61404C1F6FF7488B004F1340754F850
:100C7000045BA5F56143B3F5614F32D8680800F114
:100C8000B76000F55840B0FBF5F017F04BFC0A20B8
:100C900017F0F2FB032643F2A030C0F20200042159
:100CA00017F014FE48F6C0117822C1F6FF716846AD
:100CB00015F016F843F67861C0F2020104A815F0A9
:100CC000C3F904A9684615F071FE804604A815F022
:100CD0009BFBB8F1000F684609DA15F095FB013E61
:100CE000D9D1A742C3D1002008B0BDE8F08115F0EA
:100CF0008BFB284608B0BDE8F08100BF10B54AF272
:100D00007C14C1F6FF740D21606803681B68984766
:100D1000606803680A211B689847204610BD00BF21
:100D200010B504461EF08CFC0146204618F0E8FF82
:100D3000044648F6BC20C1F6FF7014F07DFF204445
:100D400010BD00BF70B5446808460D461EF078FC23
:100D500023680246294620465B68BDE87040184774
:100D600070B5044682B0002017F086FB2569267D09
:100D70002868036843F2A8315B68C0F202010222CE
:100D800098472868036843F2AC315B68C0F20201FF
:100D90000A2298473146286800230A2214F05EFF91
:100DA0002868036845F24861C0F2020102225B68CC
:100DB000984728680368DB689847002017F05CFBB9
:100DC000002543F27C3243F23C31206925772B46E3
:100DD0000095C0F20202C0F20201FFF711FE656643
:100DE000256602B070BD00BF70B5044608460D46CA
:100DF0001EF026FC23680246294620465B68BDE8B3
:100E0000704018472DE9F043046840F66153A46A26
:100E1000C0F200039C4291B006468846154640F059
:100E2000FB81002017F028FB3469377D20680368B8
:100E300043F2A8315B68C0F20201022298472068A1
:100E4000036843F2AC315B68C0F202010A229847A2
:100E50000A2200233946206814F000FF45F2486159
:100E6000C0F202012068FFF7BFFF20680368DB685B
:100E70009847002017F000FB002443F27C3243F235
:100E80003C313069347723460094C0F20202C0F24C
:100E90000201FFF7B5FD74663466002017F0ECFA26
:100EA000346996F8149020680368002743F2A8314B
:100EB0005B6877663766C0F20201022298472068B5
:100EC000036843F2B8315B680822C0F20201984718
:100ED0003946206814F052FE2068036845F24861E4
:100EE000C0F2020102225B68984720680368DB6851
:100EF0009847384617F0C0FA43F27C3243F23C314F
:100F00003B46C0F202020097C0F202012046FFF702
:100F100077FD43F2A831C0F202012068FFF764FFB9
:100F200043F2C431C0F202012068FFF75DFF0A22DC
:100F30003B464946206814F091FE206803682C2146
:100F40001B68984743F2D031C0F202012068FFF7D6
:100F50004BFF44F6CC51C0F202012068FFF744FF7A
:100F600041462068FFF740FF43F2D831C0F202014A
:100F70002068FFF739FF2946206814F0FFFD45F28D
:100F80004861C0F202012068FFF72EFF2068036865
:100F9000DB6898474AF2A875384617F06DFAC1F633
:100FA000FF75394604A815F04FF804A8402115F044
:100FB00033FA2B680393039F002017F05DFA05E0D6
:100FC000206803685B69984700281CDC2068036878
:100FD0001B6998470028F3DC2B680293029B42F2BE
:100FE000F742DB1BC0F201029342E5D904A815F0D9
:100FF0007DFE44F20C41C0F2020104A8002415F069
:1010000073FAA046CFE0C1B204A815F051FB43F239
:10101000DC31C0F202010CA815F016F80CA904A8E6
:1010200015F074FC8146002840F0E4800CA815F00F
:10103000EBF943F2EC31C0F202010CA815F004F810
:101040000CA904A815F062FC8046002840F0D98065
:101050000CA815F0D9F943F2FC31C0F202010CA83A
:1010600014F0F2FF0CA904A815F050FC81460028EA
:1010700040F095800CA815F0C7F943F21041C0F27A
:1010800002010CA814F0E0FF0CA904A815F03EFC26
:1010900080460CA8B8F1000F40F0B98015F0B4F903
:1010A00043F21841C0F202010CA814F0CDFF0CA9C4
:1010B00004A815F02BFC002871D10CA815F0A4F998
:1010C00043F29031C0F202010CA814F0BDFF0CA94C
:1010D00004A815F01BFC80460CA815F095F9B8F192
:1010E000000F12D008A878232C22216814F02EFEBD
:1010F00008A815F029FE01285DD008A904A815F05C
:1011000053FA08A815F080F960E743F28431C0F281
:1011100002010CA814F098FF0CA904A815F0F6FB26
:1011200080460CA815F070F9B8F1000F3FF44EAFEF
:1011300045F24861C0F202010CA814F085FF069A3E
:101140000CA9083A04A815F07FFC804608F10208B3
:101150000CA815F059F942462C2104A815F014FCEE
:101160004246034604A90CA815F098FC0CA815F0FB
:10117000EBFD80460CA815F047F9B8F1040F06D82E
:1011800004EB8808D8F804300BB100221A7744F237
:101190000C41C0F2020104A815F0A6F916E70CA84C
:1011A00015F032F9444604A815F02EF9404634777C
:1011B00011B0BDE8F08378230A2221680CA814F04E
:1011C000C5FD0CA815F0C0FD80460CA815F01CF953
:1011D000B8F1040F06D804EB8808D8F804300BB136
:1011E00001225A7744F20C41C0F2020104A815F022
:1011F0007BF986E70CA84FF0010815F005F9444685
:10120000D1E70CA8C84615F0FFF84C46CBE7C84616
:1012100015F0FAF84C46C6E7A0473EE62DE9F04146
:101220004AF2A875C1F6FF7586B02B680093009F3F
:101230002B680193019BDB1B994248D904460E465B
:1012400007E017F019F92B680193019BDB1BB342F0
:101250003DD22068036843F2A8315B68C0F2020106
:10126000022298472068036844F20C415B68C0F290
:101270000201002298472068036845F24861022273
:10128000C0F202015B68984720680368DB689847F2
:10129000002017F0F1F8002102A814F0D5FE43F267
:1012A0003C33C0F2020302AAC8212046FFF79AFA93
:1012B000804602A815F0A8F8B8F1010F4FF06400BD
:1012C000BFD117F0D9F8404606B0BDE8F081002044
:1012D00006B0BDE8F08100BF2DE9F0434AF2A877DF
:1012E000C1F6FF7785B03B680193019E04468846AE
:1012F0001546B9463B680293029B9B1BAB421FD22B
:10130000D9F800300393039B9B1BAB4209D32068A1
:1013100003685B6998474045ECD1012005B0BDE802
:10132000F083206803681B6998470028EFD117F005
:10133000A3F83B680393039B9B1B9D42E7D9F0E70F
:10134000002005B0BDE8F0832DE9F047044690B0D9
:101350008146002759F8048FB8F1000F04D098F89F
:101360001D30002B40F0CE800137052FF2D14AF21C
:10137000A875C1F6FF75206803681B6998470028A7
:1013800000F0BD80002104A814F05EFE04A84021F6
:1013900015F042F82B680393039E002017F06CF8B9
:1013A00005E0206803685B699847002819DC20681D
:1013B00003681B6998470028F3DC2B680293029BA3
:1013C0009B1B092BE9D904A815F090FC44F20C41B1
:1013D000C0F2020104A815F087F804A815F014F86B
:1013E000C9E7C1B204A815F063F943F29031C0F225
:1013F00002010CA814F028FE0CA904A815F086FA26
:1014000007460CA815F000F89FB108A878232C22F5
:10141000216814F09BFC08A815F096FC01280746EB
:101420004FD008A904A815F0BFF808A814F0ECFFE5
:10143000BDE743F28431C0F202010CA814F004FEAF
:101440000CA904A815F062FA80460CA814F0DCFF81
:10145000B8F1000FABD045F24861C0F202010CA810
:1014600014F0F2FD069A0CA9083A04A815F0ECFA5B
:10147000804608F102080CA814F0C6FF42462C2151
:1014800004A815F081FA4246034604A90CA815F0F9
:1014900005FB0CA815F058FC80460CA814F0B4FF0E
:1014A000B8F1040F05D804EB8808D8F8043003B16C
:1014B0001F7744F20C41C0F2020104A815F014F8A1
:1014C00075E778230A2221680CA814F03FFC0CA8C9
:1014D00015F03AFC80460CA814F096FFB8F1040F02
:1014E00005D804EB8808D8F8043003B15F7744F2DC
:1014F0000C41C0F2020104A814F0F6FF95E710B009
:10150000BDE8F08720680368002643F2A8315B68D5
:1015100088F81D60C0F20201022298472068036823
:1015200043F224415B68C0F202010C229847334623
:101530000A223946206814F091FB2068036845F2BE
:101540004861C0F2020102225B6898472068036884
:10155000DB689847304616F08FFF43F27C3243F247
:10156000344100963346C0F20202C0F20201204626
:10157000FFF746FA012850D043F2A831C0F2020129
:101580002068D9F800A0FFF72FFC43F24041C0F2D9
:1015900002012068FFF728FC0A2200233946206850
:1015A00014F05CFB45F24861C0F202012068FFF7CD
:1015B0001BFC20680368DB689847002016F05CFF7E
:1015C00043F27440C0F2020043F24C4343F25842EB
:1015D00043F264410090C0F20203C0F20202C0F282
:1015E00002012046FFF70CFA0646A6F10106002587
:1015F00043F27C3243F23C31B6FA86F600952B4634
:10160000C0F20202C0F2020120467609FFF7F8F9A3
:101610008AF81C60A8F81650A6E640F6B8322C21CD
:101620002046FFF759FE40F6B8322C212046FFF73E
:1016300053FE78230A2221680CA814F087FB0CA81B
:1016400015F082FB05460CA814F0DEFE43F27C3256
:1016500043F23C3100963346C0F20202C0F202016E
:101660002046FFF7CDF9002D86D0ADB2D2E700BFFE
:1016700010B5044682B0002016F0FEFE236E606EA8
:101680001B1A002B04DB26D0E08A184402B010BDE0
:1016900013F1400F1AD1227FC2B14AF2A873C1F6EA
:1016A000FF73A1691A680092009A521AB2F5FA7F84
:1016B00005D91B680193019BA3610123637720690E
:1016C000FFF742FE236E606E1B1ADDD5E08A4033C1
:1016D000184402B010BD227F002ADED1E08A1844EF
:1016E00002B010BD10B5026841F271631269C0F218
:1016F00000039A4282B0044633D1002016F0BCFEAB
:10170000236E606E1B1A002B09DB2CD0E08A184474
:1017100010B9207F02B010BD012002B010BD13F13E
:10172000400F1AD1227FC2B14AF2A873C1F6FF73EB
:10173000A1691A680192019A521AB2F5FA7F05D985
:101740001B680093009BA361012363772069FFF767
:10175000FBFD236E606E1B1AD8D5E08A4033184417
:10176000D6E79047D4E7227F002ADDD1E08A1844EB
:10177000CEE700BF10B5026841F2E563D16AC0F25E
:101780000003994282B019D1126941F27163C0F22B
:1017900000039A42044637D1002016F06DFE236EF6
:1017A000606E1B1A002B0FDB30D0E08A184410B992
:1017B000207F02B010BD012002B010BD884700306C
:1017C00018BF012002B010BD13F1400F1AD1227FC3
:1017D000C2B14AF2A873C1F6FF73A1691A680192F7
:1017E000019A521AB2F5FA7F05D91B680093009B43
:1017F000A361012363772069FFF7A6FD236E606E66
:101800001B1AD2D54033D0E79047D0E7227F002A79
:10181000CBD0DEE72DE9F04F064693B0002014460A
:10182000029116F029FE3069FFF78EFD002C00F0C2
:10183000DF81337F1846002B00F093804FF00009C2
:10184000A346326E776ED21B002A1346C9EB0B05F6
:10185000B8BF02F140039D4240F23881002B40F0B6
:1018600034813069FFF770FDF38A002B78D034693A
:10187000336E756E2068ED1A337D03931F4603683F
:1018800043F2A831002D5B68C0F202014FF0020262
:10189000D8BF403598472068036843F280415B68B1
:1018A000C0F202010C22984739460A220023206820
:1018B00014F0D4F9206803682C211B689847691E2E
:1018C00000230A22206814F0C9F92068036845F251
:1018D00048610222C0F202015B68984720680368F1
:1018E000DB6898474AF2A877002016F0C5FDC1F6DC
:1018F000FF77002106A814F0A7FB06A8402114F0EA
:101900008BFD3B680593DDF81480002016F0B4FDD4
:1019100005E0206803685B699847002824DC20689C
:1019200003681B6998470028F3DC3B680493049B19
:10193000C8EB0303B3F57A7FE7D306A815F0D6F911
:1019400044F20C41C0F2020106A814F0CDFD06A835
:1019500014F05AFDCB4503D9337F002B7FF471AFD0
:10196000484613B0BDE8F08FC1B206A814F0A0FE3F
:1019700043F23441C0F202010EA814F065FB0EA937
:1019800006A814F0C3FF002840F0AE800EA814F0A3
:101990003BFD43F27C31C0F202010EA814F054FB6F
:1019A0000EA906A814F0B2FF002840F0FF800EA890
:1019B00014F02AFD43F29031C0F202010EA814F097
:1019C00043FB0EA906A814F0A1FF05460EA814F0CB
:1019D0001BFD9DB10AA878232C22216814F0B6F9CA
:1019E0000AA815F0B1F90128054650D00AA906A8A1
:1019F00014F0DAFD0AA814F007FD90E743F28431F1
:101A0000C0F202010EA814F01FFB0EA906A814F0E4
:101A10007DFF82460EA814F0F7FCBAF1000F3FF4E8
:101A20007EAF45F24861C0F202010EA814F00CFB33
:101A3000089A0EA9083A06A815F006F882460AF197
:101A4000020A0EA814F0E0FC52462C2106A814F05D
:101A50009BFF5246034606A90EA815F01FF80EA8D4
:101A600015F072F982460EA814F0CEFCBAF1040FFC
:101A700005D804EB8A0ADAF8043003B11D7744F282
:101A80000C41C0F2020106A814F02EFD47E77823AE
:101A90000A2221680EA814F059F90EA815F054F97D
:101AA00082460EA814F0B0FCBAF1040F05D804EB7E
:101AB0008A0ADAF8043003B15D7744F20C41C0F2CF
:101AC000020106A814F010FD94E71D46029BA846EB
:101AD00006F1200A002AB8BF4032002A6DD1029BCD
:101AE0002B440293A94435E70EA814F08DFC06A8F8
:101AF00014F08AFC40F6B8322C212046FFF7ECFBAC
:101B000040F6B8322C212046FFF7E6FB2C22216854
:101B100078230EA814F01AF9039B0EA804EB83088F
:101B200015F012F907460EA814F06EFC78230A226D
:101B30002168D8F804500EA814F008F90EA815F082
:101B400003F9E8820EA814F05FFC0FB30025B2463B
:101B500001E016F091FC206803681B699847002893
:101B6000F7D0206803685B699847D8F80420116EA5
:101B7000566E4B1C03F03F03B34205F1010504D040
:101B800002EB010E8EF820001366AF42E3D15646F9
:101B9000002343F27C3243F23C3120460093C0F2F2
:101BA0000202C0F20201FEF72BFFD3E60EA814F0EA
:101BB0002BFC06A814F028FCCCE6C7F140044445F1
:101BC000A8BF44469442A8BF14460AEB0701184632
:101BD000224615F02DFD274407F03F07B8EB040817
:101BE000034677663FF47BAF326E2344D21B71E726
:101BF000204613B0BDE8F08FF0B5054687B0002051
:101C000016460F4616F038FC2869FFF79DFB2C6935
:101C10002D7D2068036843F2A8315B68C0F20201A1
:101C2000022298472068036843F290415B68C0F243
:101C300002010922984729460A220023206814F04D
:101C40000DF8206803682C211B6898473146002353
:101C50000A22206814F002F82068036845F24861FF
:101C6000C0F2020102225B68984720680368DB68C3
:101C70009847002016F000FC002543F27C3243F226
:101C80009C41204600952B46C0F20202C0F20201A0
:101C9000FEF7B6FE012802D0002007B0F0BD206894
:101CA0000368324639465B68984720680368DB68FA
:101CB000984743F27C3243F2A04100952B46C0F294
:101CC0000202C0F202012046FEF79AFE0128E3D18B
:101CD00040F6B8322C212046FFF7FEFA216878231F
:101CE0000A2202A814F032F802A815F02DF80446D2
:101CF00002A814F089FB2046CFE700BF70B5026848
:101D000041F6F933546888B0C0F200039C428DF864
:101D10000F104ED10546002016F0AEFB2869FFF7E4
:101D200013FB2C692D7D2068036843F2A8315B68A2
:101D3000C0F20201022298472068036843F29041F2
:101D40005B68C0F202010922984729460A22002353
:101D5000206813F083FF206803682C211B689847D4
:101D600000230A220121206813F078FF206803680D
:101D700045F24861C0F2020102225B689847206880
:101D80000368DB689847002016F076FB002543F2D5
:101D90007C3243F29C41204600952B46C0F2020261
:101DA000C0F20201FEF72CFE012808D0002008B086
:101DB00070BD01220DF10F01A04708B070BD23686E
:101DC000196802464E6818460DF10F01B0472068A9
:101DD0000368DB68984743F27C3243F2A0410095E8
:101DE0002B46C0F20202C0F202012046FEF708FEB6
:101DF0000128DBD140F6B8322C212046FFF76CFADF
:101E0000216878230A2204A813F0A0FF04A814F084
:101E10009BFF044604A814F0F7FA2046C7E700BF6A
:101E2000002957D0F0B5036887B0064608465D68BC
:101E30000C461DF005FC41F6F933C0F200039D424B
:101E4000074649D1002016F017FB3069FFF77CFAEE
:101E50003569367D286843F2A831C0F20201FEF7E9
:101E6000C3FF43F29041C0F202012868FEF7BCFFB5
:101E700031460A220023286813F0F0FE2868036820
:101E80002C211B6898470A2200233946286813F042
:101E9000E5FE45F24861C0F202012868FEF7A4FFA2
:101EA00028680368DB689847002016F0E5FA0026EA
:101EB00043F27C3243F29C41284600963346C0F2FE
:101EC0000202C0F20201FEF79BFD01280AD00020A9
:101ED00007B0F0BD08467047024621463046A84785
:101EE00007B0F0BD286803683A4621465B6898470A
:101EF00028680368DB68984743F27C3243F2A041CC
:101F000000963346C0F20202C0F202012846FEF7F4
:101F100077FD0128DBD140F6B8322C212846FFF7A7
:101F2000DBF9296878230A2202A813F00FFF02A820
:101F300014F00AFF044602A814F066FA2046C7E728
:101F400070B50568044628460E4615F09DFA86428F
:101F500003D03146284615F0F3FA204670BD00BF85
:101F600010B50121062016F025FA4AF2307401213D
:101F70001920C1F6FF7416F01DFA0121142016F085
:101F800019FA00222068114609F0C2FF20680022D9
:101F90000C2109F0C7FF00222068114609F0CCFF90
:101FA00020680022022109F0D1FF206800220121CF
:101FB00009F0D6FF20680122002109F0A9FF20685E
:101FC00001220C2109F0AEFF20680122002109F056
:101FD000B3FF20680122022109F0B8FF0122114657
:101FE000206809F0BDFF0021222016F0E3F903214B
:101FF0000E2016F0DFF949F644740321102016F084
:10200000D9F9C1F6FF740321112016F0D3F9204647
:1020100009F00EFF04F1140009F00AFF04F1280092
:10202000BDE8104009F004BF2DE97043002014F012
:10203000FBFF102015F0BEF8642015F083F94AF27A
:102040003073C1F6FF734FF0FF321868222109F098
:1020500091FF1BF079FF06461BF020FB00230022B6
:10206000C4F208038046894618F00CFC41F64E7213
:1020700044F67833CDF65212C3F675531BF062FB6B
:10208000424604460D464B46404649461BF05AFB25
:1020900047F6EA2242F20773CCF23F12C3F67163AD
:1020A0001BF050FB02460B46204629461BF096F9D2
:1020B0000D464FF62F710446C3F6812130461BF0C2
:1020C00097FF1BF0EBFA02460B46204629461BF011
:1020D00087F948F2DF634FF00042C3F690731BF0BC
:1020E0007DF91BF027FEBDE8708300BFF0B500202E
:1020F00085B04AF2307714F097FFC1F6FF770C20D5
:1021000015F058F80A2015F01DF94FF0FF320E2196
:10211000386809F02FFF1BF017FF4AF2B406C1F62A
:10212000FF764AF2701530601CF03EF9014649F620
:102130004470C1F6FF7009F089FE1BF005FFC1F67F
:10214000FF750021C4F2FA3128601CF00DF96C46CD
:1021500000286ED068460A22002114F01DF84AF2C9
:10216000E4002146C1F6FF7014F09CF9204614F0FB
:102170004BF94FF0FF321021386809F0FBFE1BF0DD
:10218000E3FE70601CF010F9014649F65870C1F684
:10219000FF7009F05BFE1BF0D7FE0021C4F2FA319C
:1021A00068601CF0E1F80A22002848D0002120468F
:1021B00013F0F2FF4AF2F4002146C1F6FF7014F06A
:1021C00071F9204614F020F94FF0FF3211213868E0
:1021D00009F0D0FE1BF0B8FEB0601CF0E5F8014637
:1021E00049F66C70C1F6FF7009F030FE1BF0ACFED2
:1021F0000021C4F2FA31A8601CF0B6F80A2218BB1C
:102200000121204613F0C8FF4AF204102146C1F60E
:10221000FF7014F047F9204614F0F6F8002014F08F
:1022200003FF0C2014F0C6FF012015F08BF805B059
:10223000F0BD68460A22012113F0AEFF8FE70121AD
:10224000204613F0A9FFB5E70021204613F0A4FFB4
:10225000DAE700BF70B540F2612084B015F014F9E0
:10226000002840F09D8040F2622015F00DF9B0FA90
:1022700080F14909062016F069F8FFF7D5FE49F20A
:10228000A854012201460546C1F6FF74684614F0C1
:102290007BF86946204614F005F9684614F0B4F856
:1022A00020681CF0CDF800230022C4F223031BF0A9
:1022B000D9FC44F6404145F25813C0F20203C0F283
:1022C0000201002808BF19464AF22070C1F6FF70CB
:1022D00014F00AF900212846C4F210111CF026F867
:1022E000002851D1002014F09FFE102014F062FF4E
:1022F000642015F027F84AF23073C1F6FF734FF0EF
:10230000FF321868152109F035FE1BF01DFE064648
:102310001BF0C4F902460B461BF014FA43F2F432E8
:1023200048F6D263C4F6EB02C3F617631BF00AFA51
:102330000D4645F6EE110446C3F62C1130461BF04F
:1023400057FE1BF0ABF902460B46204629461BF010
:1023500047F848F601734FF02042C3F617731BF09D
:102360003DF81BF0E7FC1CF045F8C1B24AF25420DE
:10237000C1F6FF7014F0EAF8FFF7B8FE0021142050
:1023800015F0E4FF04B070BD40F25A2015F07CF85F
:102390000128A7D0012140F25A2015F0D1F8A1E779
:1023A00040F2622015F070F80146062015F0CEFFCD
:1023B00063E700BF10B5044640F25D2015F064F8F5
:1023C000012800D010BD246820461DF039F90146CF
:1023D000204617F095FC48F6BC20C1F6FF70BDE81A
:1023E000104013F029BC00BF10B5044640F25D2038
:1023F00015F04AF8012800D010BD2068BDE8104053
:10240000FEF722BC2DE9F84349F2DC78C1F6FF78EB
:1024100049F2885398F80040C1F6FF7349F2E87515
:1024200003EBC409C1F6FF7506460F46D9E9002340
:10243000D5E900011AF0D2FF3B46C9E900673246F0
:102440001AF0CEFF49F6A073C1F6FF73064618785E
:1024500001340F4604F00304032888F80040C5E95E
:10246000006702D80130C0B218701BF005F90246AF
:102470000B46304639461BF08FFABDE8F88300BFA3
:102480002DE9F84349F68578C1F6FF7849F6F873E7
:1024900098F80040C1F6FF7349F2D05503EBC40928
:1024A000C1F6FF7506460F46D9E90023D5E90001BC
:1024B0001AF094FF3B46C9E9006732461AF090FFD4
:1024C0004AF24823C1F6FF730646187801340F46D6
:1024D00004F00304032888F80040C5E9006702D827
:1024E0000130C0B218701BF0C7F802460B463046E8
:1024F00039461BF051FABDE8F88300BF2DE9F04FD3
:102500000C46B7B0194617460646002220461D461F
:1025100014F05EFA034601331A462946019020461C
:10252000029314F055FA034601331A4629460390E4
:102530002046049314F04CFA034601331A46294608
:1025400005902046069314F043FA034601331A46D9
:10255000294607902046089314F03AFA03460133BF
:102560001A462946099020460A9314F031FA034688
:1025700001331A4629460B9020460C9314F028FA92
:10258000034601331A4629460D9020460E9314F057
:102590001FFA034601331A4629460F90204610932E
:1025A00014F016FA034601331A46294611902046C4
:1025B000129314F00DFA034601331A46294613907C
:1025C0002046149314F004FA034601331A462946B0
:1025D00015902046169314F0FBF9034601331A4672
:1025E000294617902046189314F0F2F90346013358
:1025F0001A462946199020461A9314F0E9F9034621
:1026000001331A4629461B9020461C9314F0E0F92A
:10261000034601331A4629461D9020461E9314F0A6
:10262000D7F9034601331A4629461F9020462093C6
:1026300014F0CEF9034601331A462946219020466C
:10264000229314F0C5F9034601331A462946239014
:102650002046249314F0BCF9034601331A46294658
:1026600025902046269314F0B3F9034601331A4609
:10267000294627902046289314F0AAF903460133EF
:102680001A462946299020462A9314F0A1F9294692
:10269000421C009020462B9214F09AF900F1010997
:1026A00029464A468346204614F092F9431C1A46AE
:1026B0002946824620462C9314F08AF9431C294669
:1026C0001A46804620462D9314F082F900210546D3
:1026D0002EA813F0B9FC0C2F00F08780009B0CDDB6
:1026E000132F5BD015DC0F2F67D034DD112F00F0D6
:1026F000828056DC219B209A3AE0052F78D013DDAA
:10270000082F5DD020DD0A2F7FD05FDC139B129A4B
:102710002EE0162F57D011DD182F63D05FDB192F55
:102720006CD12B462D9A23E0022F6BD01ADC002FA0
:102730003AD0012F62D1039B029A19E0142F4BD09B
:10274000152F5BD12A9A13E0062F30D0072F55D1D1
:102750000F9B0E9A0CE00D2F2CD00E2F4ED11D9BEF
:102760001C9A05E0032F34D0042F47D1099B089A07
:10277000214632A814F092F932A92EA813F092FE45
:102780000146304613F08CFC32A813F03DFE2EA813
:1027900013F03AFE304637B0BDE8F08F279B269AFB
:1027A000E6E7259B249AE3E7019B3A46E0E70D9B89
:1027B0000C9ADDE71B9B1A9ADAE71F9B1E9AD7E754
:1027C000119B109AD4E75B462B9AD1E7179B169A78
:1027D000CEE7079B069ACBE7299B289AC8E7534682
:1027E0004A46C5E743462C9AC2E7199B189ABFE7A9
:1027F0000B9B0A9ABCE7239B229AB9E72EA813F0F9
:1028000003FEC7E7059B049AB2E7159B149AAFE74E
:10281000F8B58D68002D06460CDD0F4600242146D4
:10282000384614F089F801783019013414F088FE24
:10283000A542F4D170190021BDE8F84014F080BE23
:10284000F0B507469BB008460E4614F01DFEB0B129
:102850000DF103050024301914F016FE013405F8BB
:10286000010F0028F7D11AAB1C4401A900233846F8
:1028700004F8643C13F0E8FB38461BB0F0BD044696
:10288000F1E700BF2DE9F04F95B001904AF26820C2
:10289000C1F6FF7002910AF07DFF002800F07881F8
:1028A0004AF22070C1F6FF7014F04EFA49F2545A01
:1028B000002840F0B280C1F6FF7A0422DAF8003036
:1028C0004EF60C5B0133C0F2FA52CAF80030CEF279
:1028D000000B039210AC0CAD97E015F037FDFFF73D
:1028E000A3FB43F21C51C0F202018046204613F0C4
:1028F000ABFBFFF799FB02220146284613F044FD8B
:102900002946204613F068FF014648F6BC20C1F670
:10291000FF7013F00DF948F6BC20C1F6FF7013F0FC
:102920008BF9284613F070FD204613F06DFD43F23D
:102930002451C0F20201204613F086FB002014F05F
:1029400073FB102014F036FC642014F0FBFC4AF2F8
:102950003073C1F6FF734FF0FF321868152109F08C
:1029600009FB1BF0F1FA81461AF098FE02460B466D
:102970001AF0E8FE43F2F43248F6D263C4F6EB02F2
:10298000C3F617631AF0DEFE0F4645F6EE11064653
:10299000C3F62C1148461BF02BFB1AF07FFE0246B3
:1029A0000B46304639461AF01BFD48F60173C3F654
:1029B00017734FF020421AF011FD1BF0BBF90222F1
:1029C0000146284613F0E0FC2946204613F004FF98
:1029D000014648F6BC20C1F6FF7013F0A9F848F68E
:1029E000BC20C1F6FF7013F027F9284613F00CFD48
:1029F000204613F009FD40461BF0D6FC0928C4BF51
:102A0000039BCBF80030DAF800300A2B4FF00101BD
:102A10004FF019003FF761AF0CE048F66403C1F6D0
:102A2000FF7AC1F6FF730021FA22CAF800101A607B
:102A300010AC0CAD43F23851C0F20201284613F03D
:102A400003FB0A22DAF8001008A813F0A5FB08A976
:102A5000284613F0C1FE0146204613F021FB204614
:102A6000FFF7A8FC204613F0CFFC08A813F0CCFC1D
:102A7000284613F0C9FC49F68003C1F6FF739B6832
:102A8000032B06D949F6E873C1F6FF739B68032B45
:102A900015D843F22061C0F20201204613F0D4FAA7
:102AA0002046FFF787FC204613F0AEFC49F2DD73A9
:102AB000C1F6FF7300221A7015B0BDE8F08F4AF21C
:102AC000E863C1F6FF731B78002B00F0B18043F27E
:102AD0005451C0F20201204613F0B6FA2046FFF727
:102AE00069FC204613F090FC029F01993A6809683E
:102AF0004AF268200123C1F6FF700AF0BBFC0346CE
:102B0000002840F0288149F2DD72C1F6FF7243F2DD
:102B10009C51C0F2020120464AF250761370C1F671
:102B2000FF7613F091FA2046FFF744FC204613F09D
:102B30006BFC336843F2B4510133C0F20201284602
:102B4000336013F081FA0A22316808A813F024FBDD
:102B500008A9284613F040FE0146204613F0A0FACB
:102B60002046FFF727FC204613F04EFC08A813F080
:102B70004BFC284613F048FC3368032B9CDD4EF6D3
:102B80000C53CEF200030422C0F2FA521A6093E70B
:102B900049F2DD72C1F6FF7243F204510346C0F2FE
:102BA000020110A8137013F04FFA10A8FFF702FCEF
:102BB00010A813F029FC43F20451C0F2020110A83E
:102BC00013F042FA10A8FFF7F5FB10A813F01CFC55
:102BD00043F20451C0F2020110A813F035FA10A814
:102BE000FFF7E8FB10A813F00FFC43F20451C0F20A
:102BF000020110A813F028FA10A8FFF7DBFB10A8B9
:102C000013F002FC43F20451C0F2020110A813F0C9
:102C10001BFA10A8FFF7CEFB10A813F0F5FB4AF241
:102C20006820C1F6FF700AF08DFD15B0BDE8F08F89
:102C300049F2DD7704AEC1F6FF7749F69071C1F62F
:102C4000FF7130463B7013F02BFA43F2CC51C0F2C7
:102C50000201304613F0E8FC43F2D851C0F2020101
:102C600008A813F0F1F94AF26820C1F6FF70089A3B
:102C700004990AF04BFB0346B0B943F2F051C0F29D
:102C8000020120463B7013F0DFF92046FFF792FB6C
:102C9000204613F0B9FB08A813F0B6FB304613F03A
:102CA000B3FB15B0BDE8F08F43F27451C0F20201DE
:102CB000284613F0C9F90499284613F0B5FC44F2EC
:102CC0004C41C0F20201284613F0AEFC43F2E05141
:102CD000C0F20201284613F0A7FC43F27C51C0F277
:102CE0000201284613F0A0FC2946204613F0D8F92B
:102CF0002046FFF75FFB204613F086FB912120461C
:102D0000FFF79EFD10981BF09FFB0746204613F02F
:102D10007BFB0A990A223944204613F0F7FA4AF25B
:102D2000D8602146C1F6FF7013F0BCFB204613F0BB
:102D30006BFB4AF2D861C1F6FF71204613F0B0F97F
:102D400021469120FFF764FD204613F05DFB2846E5
:102D500013F05AFB9FE704AE43F274513046C0F2C1
:102D6000020113F071F901993046096813F05CFC17
:102D700044F24C413046C0F2020113F055FC396870
:102D8000304613F051FC43F27C513046C0F2020150
:102D900013F04AFC3146204613F082F92046FFF733
:102DA00009FB204613F030FB43F28451C0F20201CC
:102DB000284613F049F94FF4FA6014F065FB014618
:102DC00008A813F0ABF908A9284613F005FD43F253
:102DD0009051C0F2020113F03FFD0146204613F06E
:102DE0005FF92046FFF7E6FA204613F00DFB08A82E
:102DF00013F00AFB284613F007FB49F2DD73C1F616
:102E0000FF730122912120461A70FFF719FD1098D7
:102E10001BF01AFB0546204613F0F6FAB9680A22A1
:102E20002944204613F072FA4AF2D8602146C1F6CE
:102E3000FF7013F037FB204613F0E6FA4AF2D86130
:102E4000C1F6FF71204613F02BF921469120FFF7C0
:102E5000DFFC204613F0D8FA4AF25073C1F6FF7334
:102E600030461A68002AC4BF02F1FF321A6049F2E4
:102E7000C853C1F6FF7300221A6013F0C5FA15B0EB
:102E8000BDE8F08F092910B504461BDD0C2936D0AA
:102E90000CDD0E292BD022DB0F2916D143F24C6119
:102EA000C0F2020113F0D0F8204610BD0A290ED05E
:102EB0000B290AD143F23C61C0F2020113F0C4F8BD
:102EC000204610BD0A2213F067F9204610BD43F2D8
:102ED0003861C0F2020113F0B7F8204610BD43F28A
:102EE0004461C0F2020113F0AFF8204610BD43F276
:102EF0004861C0F2020113F0A7F8204610BD43F26A
:102F00004061C0F2020113F09FF8204610BD00BFDF
:102F100030B5044685B0642014F0B6FA0146204668
:102F2000FFF7B0FF652014F0AFFA01466846FFF7DF
:102F3000A9FF6946204613F037FB684613F064FA90
:102F4000662014F0A1FA01466846FFF79BFF694628
:102F5000204613F029FB684613F056FA672014F058
:102F600093FA01466846FFF78DFF43F250656946C4
:102F7000204613F019FBC0F20205684613F044FA2C
:102F80002946204613F050FB682014F07DFA0146D4
:102F90006846FFF777FF6946204613F005FB684651
:102FA00013F032FA692014F06FFA01466846FFF711
:102FB00069FF6946204613F0F7FA684613F024FAD1
:102FC0002946204613F030FB6A2014F05DFA0146D2
:102FD0006846FFF757FF6946204613F0E5FA684652
:102FE00013F012FA6B2014F04FFA01466846FFF70F
:102FF00049FF6946204613F0D7FA684613F004FAF1
:103000006C2014F041FA01466846FFF73BFF694621
:10301000204613F0C9FA684613F0F6F96D2014F053
:1030200033FA01466846FFF72DFF6946204613F044
:10303000BBFA684613F0E8F96E2014F025FA014651
:103040006846FFF71FFF6946204613F0ADFA684651
:1030500013F0DAF96F2014F017FA01466846FFF70B
:1030600011FF6946204613F09FFA684613F0CCF929
:10307000204605B030BD00BF10B5044613F064FE15
:10308000002800DD10BD00D010BD43F23861C0F251
:103090000201204613F024FC08B10A2010BD43F6BB
:1030A0006C31C0F20201204613F01AFC0028F4D162
:1030B00043F23C61C0F20201204613F011FC08B15A
:1030C0000B2010BD43F25461C0F20201204613F000
:1030D00007FC0028F4D143F24061C0F2020120460F
:1030E00013F0FEFB08B10C2010BD43F25861C0F292
:1030F0000201204613F0F4FB0028F4D143F24461AE
:10310000C0F20201204613F0EBFB08B10D2010BD08
:1031100044F69471C0F20201204613F0E1FB00284E
:10312000F4D143F24861C0F20201204613F0D8FB0B
:1031300008B10E2010BD44F6A801C0F202012046DD
:1031400013F0CEFB0028F4D143F24C61C0F202012F
:10315000204613F0C5FB08B10F2010BD43F25C619F
:103160002046C0F2020113F0BBFB00288CD0F3E72D
:1031700070B584B0054668460C46FFF761FB0098C1
:103180001BF062F90646684613F03EF90A227119EF
:10319000684613F07DF869462046FFF739FB68461C
:1031A00013F032F921466846FFF74AFB00981BF0FE
:1031B0004BF90446684613F027F9204604B070BD69
:1031C0002DE9F04707468A461046394616461D4601
:1031D0001AF004FE4FF63521C3F68E411AF008FFAF
:1031E0004FF07C511AF004FF1AF058FA17F0ACFABD
:1031F00002460B461AF0A6FA1AF09CFD4FF635214E
:103200000446C3F68E4138461AF0F2FE1AF046FA2A
:1032100017F0C6F989464FF635218046C3F68E4130
:1032200030461AF0E5FE1AF039FA17F0B9F90646F9
:103230000F46404649461AF07DFD1AF02FFA3246F5
:103240003B461AF07FFA06460F46284651461AF0CA
:10325000C5FD4FF63521C3F68E411AF0C9FE4FF079
:103260007C511AF0C5FE1AF019FA17F06DFA804673
:103270008946304639461AF05DFD1AF00FFA42468B
:103280004B461AF05FFA1AF055FD1AF007FA42465B
:103290004B461AF057FA1AF04DFD21461AF0A0FDE0
:1032A00004461AF0FBF917F065FC06460F464FF08E
:1032B0007E5021461AF092FD1AF0F0F917F05AFCF0
:1032C00002460B463046394617F0DAFA02460B46FC
:1032D0001AF086F81AF02EFD46F67051C4F6C22197
:1032E0001AF086FE0021C4F2964104461BF03CF819
:1032F00010B10020BDE8F08720461BF055F8BDE86E
:10330000F08700BF30B549F68003C1F6FF7389B07E
:1033100018681BF095F81AF00DFD49F2505449F663
:10332000E873C1F6FF73C1F6FF7449F6807520603B
:1033300018681BF085F81AF0FDFC4AF2C0610246DD
:103340004AF25020C1F6FF71C1F6FF70C1F6FF7559
:103350002368096800682A60FFF732FF602104468D
:10336000FFF706FF0A22014604A812F091FF4AF275
:10337000341004A9C1F6FF7013F094F804A813F0F8
:1033800043F84AF2E400C1F6FF7013F0DDFC0028B8
:103390002DDD53212046FFF7EBFE0A22014604A84B
:1033A00012F076FF49F6285004A9C1F6FF7013F019
:1033B00079F804A813F028F843F26061C0F2020122
:1033C000684612F041FE49F62851C1F6FF71684681
:1033D00013F002FA014604A812F062FE04A8FEF7F8
:1033E000E9FF04A813F010F8684613F00DF809B0CF
:1033F00030BD00BF49F66C0008B5C1F6FF7013F090
:10340000A3FC012803DDBDE80840FFF77BBF08BD32
:1034100000B54AF2300085B0C1F6FF7010F048F8F0
:10342000C8B143F27861C0F20201684612F00CFEA6
:103430006846FEF7BFFF684612F0E6FF43F29C6164
:10344000C0F20201684612F0FFFD6846FEF7B2FFC7
:10345000684612F0D9FF4AF230007921C1F6FF70B8
:1034600010F078F84AF230000A224FF4B871C1F631
:10347000FF7010F0D5F84AF230006421C1F6FF70F9
:1034800010F048F805B05DF804FB00BF2DE9F041ED
:10349000C82090B014F0F0FFFEF762FD1920012162
:1034A00014F054FFFFF7B4FF40F2612013F0ECFF7B
:1034B00000286ED140F2622013F0E6FFB0FA80F1EE
:1034C0004909062014F042FF4FF47A7014F0D4FF3B
:1034D00043F2C061C0F2020108A812F0B5FD49F242
:1034E0006051C1F6FF7108A813F076F9014648F65D
:1034F000BC20C1F6FF7012F01BFB48F6BC20C1F6E1
:10350000FF7012F099FB08A812F07EFF192000212D
:1035100014F01CFF40F2D57013F0B6FFB0B343F2C5
:10352000FC24C0F202040FCC6D460FC594E80F00D6
:10353000103485E80F000FCC08AD0FC594E80F00DC
:10354000ADF1040685E80F000DF13C0807AD4FF41E
:103550007A7756F8041F55F8044F97FBF4F489B2B4
:1035600022461C2012F094FC20461AF0EDFC46F294
:103570006661C3F6A6711AF03BFD1AF015FF14F050
:103580007BFF1C2012F02CFD4545E2D110B0BDE8B8
:10359000F08140F2622013F077FF0146062014F01C
:1035A000D5FE91E770B549F2F05084B0C1F6FF70D6
:1035B0000EF0A6FE43F2E061C0F20201684612F08E
:1035C00043FD6846FEF7F6FE684612F01DFF41F225
:1035D000883014F051FF43F20471C0F202016846D2
:1035E00012F032FD6846FEF7E5FE684612F00CFF69
:1035F00049F2F050C1F6FF700FF0A8F843F20C71D9
:10360000C0F20201684612F01FFD6846FEF7D2FEC6
:10361000684612F0F9FE49F2F050C1F6FF700DF065
:10362000B1FF4AF2F066C1F6FF76751E306049F2CE
:10363000F050C1F6FF700DF0A9FF706049F2F05034
:10364000C1F6FF700DF0A6FFB06049F2F050C1F670
:10365000FF700DF0A3FFF06049F2F050C1F6FF706B
:103660000DF0A0FF306149F2F050C1F6FF700DF08F
:103670009DFF00247061204615F8011F013413F0EE
:103680005FFF182CF7D143F20C71C0F202016846BB
:1036900012F0DAFC6846FEF78DFE684612F0B4FEC2
:1036A00004B070BD30B54AF23004C1F6FF7489B081
:1036B000616A204610F02EF8A16A204610F02AF820
:1036C000E16A204610F026F8216B204610F022F81F
:1036D00020461E210FF042FFA169204610F010F88D
:1036E000E169204610F00CF8216A204610F008F835
:1036F000204610F08DF90022014604A812F044FE85
:103700004AF2347004A9C1F6FF7012F0CBFE04A88F
:1037100012F07AFE616B0A22684612F0B9FD0323AB
:103720000022694604A813F0B9F904A9684612F00A
:10373000B9FE04A812F068FE00981AF081FE43F268
:1037400033334FF08042C4F23B0319F0FBFF4FF4D8
:103750007043C4F2740300221AF01EF91AF0EAFA58
:103760000222014604A812F00FFE49F6145004A9E3
:10377000C1F6FF7012F096FE04A812F045FE4AF260
:10378000EF65C1F6FF750024204613F07DFE01347D
:10379000182C05F8010FF7D1684612F035FE09B074
:1037A00030BD00BF00B549F690718DB0C1F6FF7114
:1037B000684612F075FC43F21471C0F202016846CB
:1037C00012F032FF4AF26820C1F6FF70009909F04A
:1037D0000BFF58B149F2C853C1F6FF730022684687
:1037E0001A6012F011FE0DB05DF804FB43F21C717B
:1037F000C0F2020104A812F027FC694604A812F0E6
:10380000D3FE04A908A812F04BFC08A8FEF7D2FDCD
:1038100008A812F0F9FD49F2C852C1F6FF72136808
:103820000133032B136007DD4EF60C53CEF2000379
:103830000422C0F2FA521A6004A812F0E5FD6846AC
:1038400012F0E2FD0DB05DF804FB00BF00B540F2E0
:10385000612089B013F018FE012804D0012140F244
:10386000612013F06DFE40F2D57013F00DFE0128BB
:1038700004D0012140F2D57013F062FE43F244718E
:1038800004A8C0F2020112F0DFFB04A9AC20FEF78D
:10389000BFFF04A812F0B8FD43F2507104A8C0F2B3
:1038A000020112F0D1FB6846AC21FEF7C9FF694660
:1038B00004A812F091FF014648F6BC20C1F6FF7043
:1038C00012F036F948F6BC20C1F6FF7012F0B4F9D8
:1038D000684612F099FD04A812F096FD44F20C41DE
:1038E00004A8C0F2020112F0AFFB04A9E820FEF721
:1038F0008FFF04A812F088FD43F25C7104A8C0F2A7
:10390000020112F0A1FB6846E821FEF799FF694623
:1039100004A812F061FF014648F6BC20C1F6FF7012
:1039200012F006F948F6BC20C1F6FF7012F084F9D7
:10393000684612F069FD04A812F066FD44F20C41DD
:1039400004A8C0F2020112F07FFB04A9C020FEF718
:103950005FFF04A812F058FD43F2687104A8C0F29A
:10396000020112F071FB6846C021FEF769FF69464B
:1039700004A812F031FF014648F6BC20C1F6FF70E2
:1039800012F0D6F848F6BC20C1F6FF7012F054F9D8
:10399000684612F039FD04A812F036FD01214FF4FB
:1039A000FA6013F0CDFD43F27871C0F2020104A871
:1039B00012F04AFB4FF4FA6013F066FD01466846C8
:1039C00012F0ACFB694604A812F006FF014648F667
:1039D000BC20C1F6FF7012F0ABF848F6BC20C1F66F
:1039E000FF7012F029F9684612F00EFD04A812F0DB
:1039F0000BFD09B05DF804FB10B545F2581488B012
:103A0000C0F20204214604A812F01EFB04A9912072
:103A1000FEF7FEFE04A812F0F7FC43F28C7104A836
:103A2000C0F2020112F010FB68469121FEF708FF78
:103A3000694604A812F0D0FEFCF7DAFD684612F0E1
:103A4000E3FC04A812F0E0FC214604A812F0FCFA02
:103A500004A99D20FEF7DCFE04A812F0D5FC43F279
:103A6000A07104A8C0F2020112F0EEFA68469D218E
:103A7000FEF7E6FE694604A812F0AEFEFCF7B8FDBC
:103A8000684612F0C1FC04A812F0BEFC214604A84E
:103A900012F0DAFA04A9EE20FEF7BAFE04A812F03A
:103AA000B3FC43F2B07104A8C0F2020112F0CCFAE8
:103AB0006846EE21FEF7C4FE694604A812F08CFEAB
:103AC000FCF796FD684612F09FFC04A812F09CFCDF
:103AD000214604A812F0B8FA04A9D520FEF798FEF2
:103AE00004A812F091FC43F2C47104A8C0F20201D0
:103AF00012F0AAFA6846D521FEF7A2FE694604A88C
:103B000012F06AFEFCF774FD684612F07DFC04A812
:103B100012F07AFC214604A812F096FA04A9E020DB
:103B2000FEF776FE04A812F06FFC43F2D47104A8ED
:103B3000C0F2020112F088FA6846E021FEF780FE2A
:103B4000694604A812F048FEFCF752FD684612F0E0
:103B50005BFC04A812F058FC43F2E07104A8C0F228
:103B6000020112F071FA04A94620FEF751FE04A8E2
:103B700012F04AFC43F2EC7104A8C0F2020112F008
:103B800063FA68464621FEF75BFE694604A812F018
:103B900023FEFCF72DFD684612F036FC04A812F057
:103BA00033FC214604A812F04FFA04A95320FEF773
:103BB0002FFE04A812F028FC43F2F87104A8C0F20A
:103BC000020112F041FA68465321FEF739FE6946B8
:103BD00004A812F001FEFCF70BFD684612F014FC7D
:103BE00004A812F011FC214604A812F02DFA04A931
:103BF0006020FEF70DFE04A812F006FC43F610014B
:103C000004A8C0F2020112F01FFA68466021FEF714
:103C100017FE694604A812F0DFFDFCF7E9FC6846D0
:103C200012F0F2FB04A812F0EFFB214604A812F0F8
:103C30000BFA04A9F420FEF7EBFD04A812F0E4FB54
:103C400043F6240104A8C0F2020112F0FDF968460F
:103C5000F421FEF7F5FD694604A812F0BDFDFCF75E
:103C6000C7FC684612F0D0FB04A812F0CDFB214639
:103C700004A812F0E9F904A97C20FEF7C9FD04A804
:103C800012F0C2FB43F63C0104A8C0F2020112F09C
:103C9000DBF968467C21FEF7D3FD694604A812F0E3
:103CA0009BFDFCF7A5FC684612F0AEFB04A812F0E1
:103CB000ABFB16F041F940F6B83014F0DDFB08B06C
:103CC00010BD00BF30B5022185B0052014F072FB95
:103CD00043F65001C0F20201684612F0B5F940F215
:103CE0005D2013F0D1FB01284DD049F6A004C1F6A8
:103CF000FF7404F58C65684612F086FB284604F2D2
:103D00006C414FF038430F220BF06EFE70B943F652
:103D10008001C0F20201684612F096F96846FEF78B
:103D200049FB684612F070FB05B030BD04F23C4020
:103D3000256009F0DFFE012120460BF0A9FAD8B179
:103D400049F6A004C1F6FF7404F23C45284621461A
:103D500009F098FF0028DAD094F83C3413F0700F83
:103D6000D5D04AF25473C1F6FF7343F66C01C0F22A
:103D7000020168461D60CFE7014620460BF088FA35
:103D80000028DDD1C3E70098FCF75EFFADE700BF78
:103D900030B50C4693B0014601A812F081F92268B3
:103DA00043F2902512AC0023C0F2020549F6DC4133
:103DB00044F8345D8DF824308DF825308DF81830B6
:103DC0008DF82030C1F6FF7109A84FF47A7544F2DE
:103DD0000223079509F0D8FE9DF8240030B9044667
:103DE00001A812F011FB204613B030BD01A92046F6
:103DF00011F09EFE204611F01FFF09A809F07AFE7F
:103E00000124EDE710B543F69C018CB00446C0F2E6
:103E10000201684612F018F943F6AC016846C0F298
:103E2000020112F001FC43F6B8016846C0F202013B
:103E300012F0FAFB43F6C4016846C0F2020112F028
:103E4000F3FB43F6D4016846C0F2020112F0ECFB2A
:103E500043F6F0016846C0F2020112F0E5FB43F6BA
:103E600000116846C0F2020112F0DEFB43F61411A5
:103E70006846C0F2020112F0D7FB43F630116846E3
:103E8000C0F2020112F0D0FB43F648116846C0F2BE
:103E9000020112F0C9FB43F660116846C0F202014C
:103EA00012F0C2FB43F67C116846C0F2020112F028
:103EB000BBFB43F690116846C0F2020112F0B4FB5E
:103EC00043F6A0116846C0F2020112F0ADFB43F6C2
:103ED000B4116846C0F2020112F0A6FB43F6C41109
:103EE0006846C0F2020112F09FFB43F6CC1168460F
:103EF000C0F2020112F098FB43F6E8116846C0F2E6
:103F0000020112F091FB43F6F0116846C0F2020183
:103F100012F08AFB43F600216846C0F2020112F05B
:103F200083FB43F614216846C0F2020112F07CFBC9
:103F300043F620216846C0F2020112F075FB43F6F9
:103F400030216846C0F2020112F06EFB43F63C21BC
:103F50006846C0F2020112F067FB43F6482168464A
:103F6000C0F2020112F060FB43F658216846C0F22D
:103F7000020112F059FB43F664216846C0F20201C7
:103F800012F052FB43F670216846C0F2020112F0B3
:103F90004BFB694604A812F083F8214608A812F0EA
:103FA0007FF808A904A8FFF7F3FE044608A812F05A
:103FB0002BFA04A812F028FA684612F025FA2046D7
:103FC0000CB010BD30B505469BB0052014F0E4F9E7
:103FD000002857D14AF2C4610446C1F6FF7101A816
:103FE00012F05EF843F6B421C0F2020101A812F00B
:103FF0001BFB49F6DC41019A8DF84440C1F6FF7184
:10400000234611A88DF8454009F0BEFD002848D090
:1040100001A905A812F044F8294609A812F040F8B1
:1040200009A90DA812F03CF805A911A812F038F85A
:1040300011A90DA8FFF7ACFE044611A812F0E4F98F
:104040000DA812F0E1F909A812F0DEF905A812F0A6
:10405000DBF943F67C2243F69821C0F20202C0F25B
:104060000201002C18BF114611A811F0EDFF11A894
:10407000FEF7A0F911A812F0C7F901A812F0C4F9CF
:104080001BB030BD43F6F421C0F2020111A811F0BB
:10409000DBFF11A8FEF78EF911A812F0B5F91BB0DD
:1040A00030BD01A911A811F0FBFF11A8FFF7AAFE6E
:1040B000044611A812F0A8F97CB943F6BC21C0F25D
:1040C000020111A811F0C0FF11A8FEF773F911A8A1
:1040D00012F09AF9FFF7F6FDCFE743F6D821C0F2C8
:1040E0000201C1E7F0B54AF2BC63C1F6FF7391B0BB
:1040F0001B78002B00F078824AF2B064C1F6FF749E
:104100002378002B00F070824AF2D460C1F6FF7071
:1041100049F6385649F2D87549F68C720023C1F633
:10412000FF72C1F6FF76C1F6FF7543F608310360F2
:10413000C0F202010CA833602B60136011F084FF01
:104140004AF2E401C1F6FF710CA812F045FB0146EA
:1041500008A811F0A5FF08A8FEF72CF908A812F08E
:1041600053F90CA812F050F949F66C00C1F6FF7033
:1041700012F0EAFD012801DDFFF7C4F84AF2382108
:10418000C1F6FF71684611F08BFF43F6D001C0F213
:104190000201684612F048FA49F68001C1F6FF7143
:1041A000684612F001FA43F6D001C0F202016846F7
:1041B00012F03AFA49F6E871C1F6FF71684612F05A
:1041C000F3F943F6D001C0F20201684612F02CFA6E
:1041D00049F66C01C1F6FF71684612F0E5F943F645
:1041E000D001C0F20201684612F01EFA49F61451DD
:1041F000C1F6FF71684612F0D7F943F6D001C0F25C
:104200000201684612F010FA4AF2A401C1F6FF71E9
:10421000684612F0C9F943F6D001C0F202016846BF
:1042200012F002FA49F6C871C1F6FF71684612F041
:10423000BBF943F6D001C0F20201684612F0F4F96E
:104240004AF23411C1F6FF71684612F0ADF943F637
:10425000D001C0F20201684612F0E6F949F6285191
:10426000C1F6FF71684612F09FF943F6D001C0F223
:104270000201684612F0D8F94AF21801C1F6FF713E
:10428000684612F091F943F6D001C0F20201684687
:1042900012F0CAF949F6D871C1F6FF71684612F0FA
:1042A00083F943F6D001C0F20201684612F0BCF96E
:1042B0004AF2D001C1F6FF71684612F075F943F673
:1042C000D001C0F20201684612F0AEF940F262205D
:1042D00013F0DAF8012800F0038245F2581149F68C
:1042E000A470C0F20201C1F6FF7012F0FDF843F6AF
:1042F0002C31C0F2020108A811F0A6FE49F6A47103
:10430000C1F6FF710CA811F0CBFE0CA908A812F0A1
:1043100063FA014648F6BC20C1F6FF7011F008FCB4
:1043200048F6BC20C1F6FF7011F086FC0CA812F014
:104330006BF808A812F068F849F6A471C1F6FF718D
:10434000684612F031F943F6D001C0F20201684626
:1043500012F06AF94AF2E401C1F6FF71684612F000
:1043600023F943F6D001C0F20201684612F05CF96D
:1043700049F2A851C1F6FF71684612F015F943F6EB
:10438000D001C0F20201684612F04EF949F27051B4
:10439000C1F6FF71684612F007F943F6D001C0F28A
:1043A0000201684612F040F94AF25411C1F6FF7159
:1043B000684612F0F9F843F6D001C0F202016846EF
:1043C00012F032F94AF2C011C1F6FF71684612F0DC
:1043D000EBF843F6D001C0F20201684612F024F96E
:1043E00049F2C071C1F6FF71684612F0DDF843F67C
:1043F000D001C0F20201684612F016F94AF2C0017B
:10440000C1F6FF71684612F0CFF843F6D001C0F252
:104410000201684612F008F94AF24411C1F6FF7130
:10442000684612F0C1F843F6D001C0F202016846B6
:1044300012F0FAF849F69001C1F6FF71684612F0E1
:10444000B3F843F6D001C0F20201684612F0ECF86E
:1044500049F2B851C1F6FF71684612F0A5F843F66B
:10446000D001C0F20201684612F0DEF84AF2D861CB
:10447000C1F6FF71684612F097F843F6D001C0F21A
:104480000201684612F0D0F84AF22071C1F6FF71BD
:10449000684612F089F843F6D001C0F2020168467E
:1044A00012F0C2F84AF2F401C1F6FF71684612F048
:1044B0007BF843F6D001C0F20201684612F0B4F86E
:1044C0004AF20411C1F6FF71684612F06DF843F626
:1044D000D001C0F20201684612F0A6F84AF2347325
:1044E000C1F6FF739968002900F0868019460CA870
:1044F00011F0D6FD0CA9684612F056F80CA811F080
:1045000083FF49F6E873C1F6FF7300221868227032
:1045100019F096FF19F00EFC4AF2502249F680037A
:10452000C1F6FF72C1F6FF731060186819F088FFBA
:1045300019F000FC4AF2C063C1F6FF7343F6403144
:104540001860C0F2020108A811F07EFD40F262205E
:1045500012F09AFF01460CA811F0E0FD0CA908A882
:1045600012F03AF9014604A811F09AFD04A8FDF7EB
:1045700021FF04A811F048FF0CA811F045FF08A87E
:1045800011F042FF49F69071C1F6FF7104A811F0D5
:1045900087FD43F66431C0F2020104A812F044F82A
:1045A00046210CA8FEF74CF90C9819F049FF4AF285
:1045B0003823C1F6FF73044618680D4619F040FF12
:1045C0000F4606460CA811F01FFF32463B46204618
:1045D000294619F033FBC8B904A811F015FF684645
:1045E00011F012FF11B0F0BD4AF22073C1F6FF7353
:1045F0001B6833B111B0F0BD0A220CA811F0CCFD3C
:1046000078E74AF2B064C1F6FF747DE504A908A812
:1046100011F046FD69460CA811F042FD4AF29D03D7
:10462000C1F6FF731B78002B52D00CA908A8FEF727
:1046300029F90CA811F0E8FE08A811F0E5FE69467A
:104640000CA811F02DFD0CA8FFF7BCFC0CA811F074
:10465000DBFE4AF2487200240025C1F6FF72C2E96F
:10466000004549F2E0534AF2B4614AF2B812C1F689
:10467000FF73C1F6FF71C1F6FF7249F66000C3E92E
:1046800000450026C1F6FF704AF22803C0E9004544
:10469000C1F6FF730E60166049F2D85549F2E07416
:1046A0004AF288004AF24C2149F2D072C1F6FF75F5
:1046B000C1F6FF74C1F6FF70C1F6FF71C1F6FF725B
:1046C0001E6000232B60236003600B60136083E790
:1046D0004AF22073C1F6FF731B68002BA9D1A4E72F
:1046E0004AF22070C1F6FF7012F02EFB01287FF411
:1046F000F4AD44F6404149F6A470C0F20201C1F69F
:10470000FF7011F0F1FEF2E549F6B475C1F6FF75E0
:1047100008B52B7813B915F069FCFCE74AF27C1454
:10472000C1F6FF7443F670312046C0F202010AF070
:1047300063FF2368297853F80C2C224420465368E1
:1047400023F0380343F0100353600AF041FF204682
:104750002C210AF045FE697A20460AF039FF2368C9
:1047600053F80C3C1C44636823F0380343F00803FF
:104770006360FCF7C3FACEE770B549F67C05C1F675
:10478000FF752B68062B40F28D8049F68476102B3E
:10479000C1F6FF762FD9202B48D8042333704AF274
:1047A0007C14C1F6FF7443F698312046C0F2020132
:1047B0000AF022FF317820460AF00AFF6068036899
:1047C0000D211B689847606803680A211B68984799
:1047D0002B684AF2E962B3F5807FC1F6FF720DD80B
:1047E0002021102B117039D84AF29C03C1F6FF73B7
:1047F00002221A7070BD02233370D0E73F2111707E
:10480000802B24D9B3F5FC7F1AD9B3F57C7F34D93A
:10481000B3F5FC6F3FD9B3F57C6F4AF29C03C1F648
:10482000FF7394BF8022FF221A7070BD402B04D901
:10483000802B1CD810233370B1E708233370AEE708
:104840004AF29C03C1F6FF7310221A7070BD4AF23F
:104850009C03C1F6FF7308221A7070BD202BCFD8BD
:104860004AF29C03C1F6FF7304221A7070BDB3F5BF
:10487000806F09D82023337091E74AF29C03C1F678
:10488000FF7320221A7070BDB3F5004F94BF402310
:104890008023337083E74AF29C03C1F6FF73402202
:1048A0001A7070BD43F67C314AF27C10C0F20201EE
:1048B000C1F6FF700AF0A0FE43F684314AF27C1084
:1048C000C0F20201C1F6FF700AF096FEFCF716FA7C
:1048D000FFF71AFF70B5044649F640500D464FF4F5
:1048E00000720021C1F6FF701AF0F8F949F6B470B1
:1048F0002A462146C1F6FF700BF06CFD00284BD014
:10490000002475B918E049F6405149F6B470C1F673
:10491000FF71C1F6FF700BF0F5FC28B30134A5421E
:104920000AD014F0FF0FEED14AF27C10C1F6FF70EE
:104930002E210AF055FDE6E749F6B470C1F6FF7086
:104940000BF07CFD00283FD04AF27C14C1F6FF74C6
:104950000D21606803681B689847606803680A2136
:104960001B68BDE87040184743F67C314AF27C1062
:10497000C0F20201C1F6FF700AF03EFE43F6CC31F0
:104980004AF27C10C0F20201C1F6FF700AF034FE58
:10499000FCF7B4F9FFF7B8FE43F67C314AF27C101D
:1049A000C0F20201C1F6FF700AF026FE43F6AC31F8
:1049B0004AF27C10C0F20201C1F6FF700AF01CFE40
:1049C000FCF79CF9FFF7A0FE43F67C314AF27C101D
:1049D000C0F20201C1F6FF700AF00EFE43F6EC31A0
:1049E0004AF27C10C0F20201C1F6FF700AF004FE28
:1049F000FCF784F9FFF788FEF8B549F64054C1F694
:104A0000FF744FF40072002120461AF067F94AF251
:104A10009C024AF2E961C1F6FF72C1F6FF7149F6E4
:104A20004073C1F6FF73127809781D6811FB02F21A
:104A3000B5FBF2F398B25527AA26B0F5806F84F83B
:104A4000FE7184F8FF6175D249F62456C1F6FF76EF
:104A500094F8C001376884F8C1311E1266F38710DC
:104A6000B5FBF1F601FB1656013649F2805C66F3A0
:104A70000500C1F6FF7C05EB070E0EF1FF3E84F842
:104A8000C001BEFBF2F6B0B29CF800C084F8C2C10F
:104A9000B0F5806F02FB1353B3FBF1F384F8BF3121
:104AA00018D3FF21FE2284F8C51184F8C32184F8AD
:104AB000C41149F6405249F6B470C1F6FF72C1F60E
:104AC000FF700021C4F8C651C4F8CA710BF0D8FABF
:104AD000C0B1F8BD94F8C431BEFBF1F04FEA262C0A
:104AE00001FB10E001306CF3871360F3050302FB58
:104AF00016E284F8C561B2FBF1F184F8C43184F8A0
:104B0000C311D6E743F67C314AF27C10C0F20201B1
:104B1000C1F6FF700AF070FD43F614414AF27C10B2
:104B2000C0F20201C1F6FF700AF066FDFCF7E6F87C
:104B3000FFF7EAFD43F67C314AF27C10C0F2020135
:104B4000C1F6FF700AF058FD43F60C414AF27C10A2
:104B5000C0F20201C1F6FF700AF04EFDFCF7CEF87C
:104B6000FFF7D2FD2DE9F04F49F63C59C1F6FF7928
:104B700049F68478D9F80070C1F6FF7883B0A7F5BC
:104B8000807298F80000B2FBF0F249F2E85602F2A7
:104B900001144AF21C73240AC1F6FF73C1F6FF76B2
:104BA0006100019301F1A1054FF480733460019C11
:104BB0009D4223600ED98033FA1AB2FBF0F202F262
:104BC0000114240A610001F1A1059D42F3D8019F5F
:104BD00034603B6049F640745B1BC1F6FF74A2F67B
:104BE000F57503F18007B5F5704F276080F00781F8
:104BF00049F2D47549F6245A49F2825B2131C1F653
:104C0000FF7502FB00118133C1F6FF7AC1F6FF7B0D
:104C100047F6A77001222B60814249F28053CAF8FF
:104C20000010ABF80020C1F6FF7306D9B1F5803F44
:104C300002D204221A7001E006221A7049F6405787
:104C4000C1F6FF77FFF7D8FE4FF400720021384617
:104C50001AF044F8D9F80020BBF800C098F800809A
:104C6000DAF80000336887F80D804AF2E96E4AF2FC
:104C70009C01C1F6FF71C1F6FF7E16024FF0550B85
:104C80004FF0AA08A7F80EC0F8224FF0EB0C9EF8E0
:104C900000E091F800A03862216887F8FEB180201A
:104CA00087F8FF8187F800C04FF000084FF0203CE4
:104CB0007A754FF0900902224FF0290BA7F818E0FF
:104CC000F9613A733A74BA74FB8287F80290A7F8D4
:104CD0001AA087F8240087F826B0C7F803C0C7F8E1
:104CE00007C087F80B8087F8118013F09FFB48F608
:104CF0006C02C1F6FF7206EB000E03CA48F65806B6
:104D0000C1F6FF76C7F82B00C7F82F1003CE168820
:104D1000C7F83600927887F8352049F6B470C7F89E
:104D20003A10A7F833602168C7F827E049F2E85441
:104D30003A46C1F6FF70C1F6FF740BF0A1F90028E6
:104D400045D0019B28681968091AFFF7C3FD414641
:104D50004FF40072384619F0C1FF49F6B470296863
:104D60004FF6F87349F2D4754FF6FF76C1F6FF702F
:104D70003A46C1F6FF753B807E800BF081F9B8B9E9
:104D800043F67C314AF27C10C0F20201C1F6FF709A
:104D90000AF032FC43F64C414AF27C10C0F20201A8
:104DA000C1F6FF700AF028FCFBF7A8FFFFF7ACFC88
:104DB0002268296849F6B4701144C1F6FF703A467A
:104DC0000BF05EF90028DBD003B0BDE8F08F43F6AE
:104DD0007C314AF27C10C0F20201C1F6FF700AF089
:104DE0000BFC43F634414AF27C10C0F20201C1F6DA
:104DF000FF700AF001FCFBF781FFFFF785FC43F62B
:104E00007C314AF27C10C0F20201C1F6FF700AF058
:104E1000F3FB43F620414AF27C10C0F20201C1F6D6
:104E2000FF700AF0E9FBFBF769FFFFF76DFC00BFBD
:104E30002DE9F84F49F63C56C1F6FF7649F68479DC
:104E40003568C1F6FF79A5F5804399F800E0B3FB1A
:104E5000FEF303F18102D209500049F2E85849F605
:104E600040774AF21C7C00F500514FF48044C1F6B3
:104E7000FF78C1F6FF77C1F6FF7C09314FF4005A85
:104E8000A142C8F80020C7F800A0CCF8004015D90E
:104E90004FF4C04400E054462B1BB3FBFEF303F178
:104EA0008102D209500000F500510931A14204F5F8
:104EB000005AF0D8CCF80040C8F800204FF6F47241
:104EC000934240F29281A4F50052101A49F2D4752F
:104ED00080B2C1F6FF750EFB034349F2825B00F519
:104EE00000544FF4806149F2805249F6245AC1F6C9
:104EF000FF72C1F6FF7AC1F6FF7B2C60C0F2FB01A6
:104F000049F64054C1F6FF748B4294BF0B210C212B
:104F1000A3F50053CAF80030ABF800001170FFF79A
:104F20006BFD4FF400720021204619F0D7FE4AF2C3
:104F3000E9624AF29C03C1F6FF72C1F6FF73DAF828
:104F40000010D8F80000BBF800B092F800C093F849
:104F500000E021623B6899F80090A4F80EB04FF091
:104F60009008F82101224FF0EB0A606284F8028079
:104F700080204FF0290B6175E3614FF020314FF035
:104F8000060322864FF00008022284F80D9084F870
:104F900000A0638684F842B0C4F80310C4F8071078
:104FA00022732274E2624FF0550AA4F818C04FF041
:104FB000AA09A4F81AE084F8400084F80B80366847
:104FC00084F8FEA184F8FF9113F030FA48F66C03E0
:104FD0003602C1F6FF73064403CB48F64C02C1F615
:104FE000FF72C4F84700C4F84B1003CA1A88C4F80B
:104FF00052009B78A4F84F2049F6B470C4F85610BC
:10500000C4F84360396884F8513049F6847B49F626
:10501000407649F2E8572246C1F6FF70C1F6FF7BA1
:10502000C1F6FF76C1F6FF770BF02AF8B8B943F660
:105030007C314AF27C10C0F20201C1F6FF700AF026
:10504000DBFA43F67C414AF27C10C0F20201C1F661
:10505000FF700AF0D1FAFBF751FEFFF755FB3168FC
:1050600049F6B4700631C1F6FF7022460BF008F81D
:105070000028DCD04FF400724146204619F02EFE85
:10508000316884F8FEA149F6B4700231C1F6FF70B0
:10509000224684F8FF910AF0F3FFB8B943F67C3159
:1050A0004AF27C10C0F20201C1F6FF700AF0A4FAC5
:1050B00043F664414AF27C10C0F20201C1F6FF706F
:1050C0000AF09AFAFBF71AFEFFF71EFB316849F661
:1050D000B4700831C1F6FF7022460AF0D1FF0028F3
:1050E000DCD045F25223C4F261133168236047F2E9
:1050F0007222C6F241124FF0FF3349F6B470C4F881
:10510000E4210131C1F6FF702246C4F8E831C4F849
:10511000EC310AF0B5FFB8B943F67C314AF27C10A5
:10512000C0F20201C1F6FF700AF066FA43F694413C
:105130004AF27C10C0F20201C1F6FF700AF05CFA7C
:10514000FBF7DCFDFFF7E0FA316849F6B470073190
:10515000C1F6FF7022460AF093FF0028DCD09BF8CE
:1051600000303968286803EB4101FFF7B3FB414683
:105170004FF40072204619F0B1FD4FF6F87649F66B
:10518000B4706FF07043C0F6FF76C1F6FF70224630
:10519000296826606360A3600AF072FFB8B943F61D
:1051A0007C314AF27C10C0F20201C1F6FF700AF0B5
:1051B00023FA43F6A8414AF27C10C0F20201C1F67C
:1051C000FF700AF019FAFBF799FDFFF79DFA2968BD
:1051D0003B6849F6B47019442246C1F6FF700AF0E4
:1051E0004FFF0028DBD0BDE8F88F43F67C314AF250
:1051F0007C10C0F20201C1F6FF700AF0FDF943F61F
:1052000020414AF27C10C0F20201C1F6FF700AF0A0
:10521000F3F9FBF773FDFFF777FA00BF2DE9F843C9
:105220004AF27C18C1F6FF780D21D8F80400036813
:105230001B689847D8F8040003680A211B6849F6E0
:105240003C579847C1F6FF7743F6C0414046C0F24D
:10525000020100260AF0D0F9C1463B68344606E058
:105260003B6804F580249C4206F1010630D204F527
:105270007F3202F2FF32934249F6B47098BF03F1D5
:10528000FF32C1F6FF702146B5B20AF049FE002890
:1052900000F09E804AF27C10C1F6FF702E2105F0CE
:1052A0001F050AF09DF81F2DDAD1D9F80400036814
:1052B0000D211B689847D9F8040003680A211B6870
:1052C00098473B6804F580249C4206F10106CED342
:1052D000D8F8040003680D211B689847D8F804002B
:1052E00003680A211B6849F640559847C1F6FF75C7
:1052F00049F6B4704AF27C142A46C1F6FF700021C8
:10530000C1F6FF740AF066FD002879D0206850F8D5
:105310000C2C22443026536823F0380343F010034A
:10532000536050F80C3C234443F6E8415A6842F479
:1053300000725A6050F80C3CE654236853F80C2C69
:1053400022442046536823F0070343F004035360CC
:10535000C0F202010AF050F92368297853F80C3C96
:1053600023440422DA6020460AF032F960680368B8
:105370000D211B689847606803680A211B689847DD
:10538000206850F80C2C22442025536823F0380361
:1053900043F00803536050F80C3C234443F6FC41AF
:1053A0005A6822F400725A6050F80C3CE5542368A5
:1053B00053F80C2C22442046536823F0070343F093
:1053C00002035360C0F20201BDE8F8430AF014B9C9
:1053D00043F67C314AF27C10C0F20201C1F6FF7044
:1053E0000AF00AF943F6CC414AF27C10C0F20201FD
:1053F000C1F6FF700AF000F9FBF780FCFFF784F9B3
:1054000043F67C31C0F2020120460AF0F5F843F67B
:10541000DC41C0F2020120460AF0EEF8FBF76EFC18
:10542000FFF772F970B54FF4FA7013F025F849F6EA
:10543000B47543F63450C1F6FF75C0F20200FBF7B5
:105440006FFC05F10C0128464FF038430F220AF09B
:10545000CBFA002800F0938028460AF0F5FC49F6C4
:105460003C53C1F6FF731860002870D049F67C06E3
:105470004AF27C14C1F6FF7400F2FF70C1F6FF76A9
:1054800043F6D051C30AC0F20201204633600AF04D
:10549000B3F82368306853F80C3C234400221A7296
:1054A00018F04EFD43F2BD71C3F6867118F0A0FDF1
:1054B00018F0F4F802460B4620460AF0F1F843F6DD
:1054C000DC512046C0F202010AF096F860680368D9
:1054D0000D211B689847606803680A211B6898477C
:1054E000FFF79CFE606803680D211B6898476068A1
:1054F00003680A211B68984743F608512046C0F20A
:1055000002010AF079F8FFF737F9AB7A032B14D0D0
:1055100043F614512046C0F202010AF06DF8FFF77D
:1055200021FB43F624514AF27C10C0F20201C1F67D
:10553000FF70BDE870400AF05FB843F61C5120468A
:10554000C0F202010AF058F8FFF772FCE9E743F6EF
:105550007C314AF27C10C0F20201C1F6FF700AF001
:105560004BF843F6C4514AF27C10C0F20201C1F676
:10557000FF700AF041F8FBF7C1FBFFF7C5F843F6EF
:105580003C514AF27C10C0F20201C1F6FF700AF0F1
:1055900033F843F67C314AF27C10C0F20201C1F6C6
:1055A000FF700AF029F843F6B0514AF27C10C0F2BD
:1055B0000201C1F6FF700AF01FF8FBF79FFBFFF72F
:1055C000A3F800BFF0B501218DB00646192012F0F6
:1055D000BDFE642012F050FF4AF26820C1F6FF7051
:1055E00008F0B0F843F6F850C0F2020048F21F5538
:1055F000FBF72AFBC5F2EB15002410E012F0A6FE23
:1056000043F65460C0F20200012114F079FB2046F9
:105610000021013411F094FFB4F5006F11D00A207D
:1056200012F02AFFA5FB04235B09642202FB13434B
:1056300001211920002BE1D00021192012F086FE53
:10564000E5E743F60C60C0F20200FBF769FB43F6A6
:105650001860C0F2020043F24435FBF7F5FAC0F2DD
:105660000205002425E012F007FF2F6801213846CB
:1056700011F066FF384611F007FF014608A810F048
:105680004DFD48F6BC2008A9C1F6FF7010F050FA95
:1056900008A810F0B9FE0B2C28D043F2506001345A
:1056A000C0F20200012114F02BFB0C2C05F10405C3
:1056B0001CD0052C4FF00A00D5D812F0DDFE2F6863
:1056C0000021384611F03CFF384611F0DDFE01465E
:1056D00008A810F023FD48F6BC2008A9C1F6FF7009
:1056E00010F026FA08A810F08FFED6E748F6BC2086
:1056F000C1F6FF7010F0A0FA4AF2C461C1F6FF7162
:10570000684610F0CDFC43F6B421C0F202016846B1
:1057100010F08AFF43F63461C0F2020104A810F0D1
:1057200093FC009908A810F08FFC08A904A8FEF7C4
:105730002FFB08A810F068FE04A810F065FE002EEC
:1057400048D040F2592011F09FFE012804D00121D9
:1057500040F2592011F0F4FE43F66860C0F20200F6
:10576000FBF7DEFA40F2622011F08EFE012804D031
:10577000012140F2622011F0E3FE40F25D2011F0C1
:1057800083FE20B1002140F25D2011F0D9FE40F2ED
:105790005A2011F079FE20B1002140F25A2011F078
:1057A000CFFE0121192012F0D1FD41F2883012F014
:1057B00063FE0021192012F0C9FD4EF60C53CEF203
:1057C00000030422C0F2FA5268461A6010F01CFE70
:1057D0000DB0F0BDFEF73AF8FEF70EF905200221F4
:1057E00012F0E8FD052012F0D7FD30B144F6145058
:1057F000C0F20200FBF794FAA3E743F65860C0F248
:105800000200FBF78DFAFFF70DFE9AE730B50D4663
:1058100043F67C6189B0C0F202010446284610F0CC
:1058200003FF2D68284619F00BFF0146284613F0A8
:105830004DF848F6C010C1F6FF7010F0FDF913F0F6
:10584000D5F80028FBD013F0AFF848F6C011782245
:105850002046C1F6FF7110F043FA13F0A5F843F6A5
:1058600080616846C0F2020110F0EEFB44F20C4188
:1058700004A8C0F2020110F0E7FB04AA6946204622
:1058800011F066F90146204610F0DCFD04A810F086
:10589000BBFD684610F0B8FD43F688616846C0F26B
:1058A000020110F0D1FB44F20C4104A8C0F2020145
:1058B00010F0CAFB04AA6946204611F049F90146D6
:1058C000204610F0BFFD04A810F09EFD684610F0C1
:1058D0009BFD44F2C0016846C0F2020110F0B4FB27
:1058E00044F20C4104A8C0F2020110F0ADFB04AA7E
:1058F0006946204611F02CF90146204610F0A2FD21
:1059000004A810F081FD684610F07EFD43F690611A
:105910006846C0F2020110F097FB44F20C4104A863
:10592000C0F2020110F090FB04AA6946204611F073
:105930000FF90146204610F085FD04A810F064FD23
:10594000684610F061FD204609B030BD30B5044610
:1059500048F6C0108DB0C1F6FF700D4610F0BEF9CC
:1059600043F67C61C0F20201204610F05DFE24681F
:10597000204619F065FE0146204612F0A7FF48F6C2
:10598000C010C1F6FF7010F057F948F6C0112A4652
:105990006846C1F6FF7110F0A3F944F2C001C0F2ED
:1059A000020104A810F050FB44F20C41C0F20201C5
:1059B00008A810F049FB08AA04A9684611F0C8F825
:1059C0000146684610F03EFD08A810F01DFD04A831
:1059D00010F01AFD43F68861C0F2020104A810F02D
:1059E00033FB44F20C41C0F2020108A810F02CFB7A
:1059F00008AA04A9684611F0ABF80146684610F001
:105A000021FD08A810F000FD04A810F0FDFC45F2EF
:105A10008471C0F2020104A810F016FB44F20C419C
:105A2000C0F2020108A810F00FFB08AA04A96846FA
:105A300011F08EF80146684610F004FD08A810F039
:105A4000E3FC04A810F0E0FC43F67C61C0F2020124
:105A500004A810F0F9FA44F20C41C0F2020108A8BF
:105A600010F0F2FA08AA04A9684611F071F801468C
:105A7000684610F0E7FC08A810F0C6FC04A810F077
:105A8000C3FC48F6C010C1F6FF704FF47A7110F0F5
:105A900025F943F678616846C0F2020110F020FF54
:105AA00098B943F698610446C0F20201684610F0C6
:105AB00017FF28B1684610F0A7FC20460DB030BD96
:105AC000684610F0A1FC0DB030BD0124F2E700BF24
:105AD0002DE9F04148F6C016C1F6FF7643F67C6723
:105AE00088B004460D4630461146C0F2020798467B
:105AF00010F0F4F83946284610F096FD2D68284637
:105B000019F09EFD0146284612F0E0FE304610F0E6
:105B100093F878223146204610F0E2F844F20C4522
:105B200043F67861C0F202056846C0F2020110F047
:105B30008BFA294604A810F087FA04AA6946204681
:105B400011F006F80146204610F07CFC04A810F085
:105B50005BFC684610F058FC43F6A0616846C0F252
:105B6000020110F071FA294604A810F06DFA04AA97
:105B70006946204610F0ECFF0146204610F062FC1A
:105B800004A810F041FC684610F03EFC43F6A86102
:105B90006846C0F2020110F057FA294604A810F036
:105BA00053FA04AA6946204610F0D2FF0146204667
:105BB00010F048FC04A810F027FC684610F024FC04
:105BC000D8F80010684610F03FFA294604A810F0F3
:105BD0003BFA04AA6946204610F0BAFF0146204667
:105BE00010F030FC04A810F00FFC684610F00CFC1C
:105BF00045F284716846C0F2020110F025FA294688
:105C000004A810F021FA04AA6946204610F0A0FF6B
:105C10000146204610F016FC04A810F0F5FB68467B
:105C200010F0F2FB3946684610F00EFA294604A837
:105C300010F00AFA04AA6946204610F089FF0146CE
:105C4000204610F0FFFB04A810F0DEFB684610F0C1
:105C5000DBFB30464FF47A7110F040F8204608B074
:105C6000BDE8F0812DE9F04343F6C06193B00446EE
:105C7000C0F2020102A810F0E7F921460A220EA89C
:105C800010F08AFA0EA902A810F08EFC0EA84AF2B3
:105C90001C1410F0B9FBC1F6FF74274602A90EA828
:105CA00010F0FEF94FF4FA710EA8FFF74FFE06460A
:105CB0000EA810F0A9FB36B343F6CC61C0F2020186
:105CC0000AA810F0C1F943F6D861C0F202010EA88B
:105CD00010F0BAF90EAB4FF4FA720AA906A8FFF752
